{
  "_format": "hh-sol-artifact-1",
  "contractName": "AirBlock",
  "sourceName": "contracts/AirBlock.sol",
  "abi": [
    {
      "anonymous": false,
      "inputs": [
        {
          "indexed": true,
          "internalType": "uint256",
          "name": "bookingId",
          "type": "uint256"
        }
      ],
      "name": "CancelBooking",
      "type": "event"
    },
    {
      "anonymous": false,
      "inputs": [
        {
          "indexed": true,
          "internalType": "uint256",
          "name": "bookingId",
          "type": "uint256"
        }
      ],
      "name": "ConfirmBooking",
      "type": "event"
    },
    {
      "anonymous": false,
      "inputs": [
        {
          "indexed": true,
          "internalType": "uint256",
          "name": "bookingId",
          "type": "uint256"
        }
      ],
      "name": "ModifyBooking",
      "type": "event"
    },
    {
      "anonymous": false,
      "inputs": [
        {
          "indexed": true,
          "internalType": "uint256",
          "name": "propertyId",
          "type": "uint256"
        },
        {
          "indexed": true,
          "internalType": "uint256",
          "name": "bookingId",
          "type": "uint256"
        }
      ],
      "name": "NewBooking",
      "type": "event"
    },
    {
      "anonymous": false,
      "inputs": [
        {
          "indexed": true,
          "internalType": "uint256",
          "name": "propertyId",
          "type": "uint256"
        }
      ],
      "name": "NewProperty",
      "type": "event"
    },
    {
      "inputs": [],
      "name": "bookingId",
      "outputs": [
        {
          "internalType": "uint256",
          "name": "",
          "type": "uint256"
        }
      ],
      "stateMutability": "view",
      "type": "function"
    },
    {
      "inputs": [
        {
          "internalType": "uint256",
          "name": "",
          "type": "uint256"
        }
      ],
      "name": "bookings",
      "outputs": [
        {
          "internalType": "uint256",
          "name": "bookingId",
          "type": "uint256"
        },
        {
          "internalType": "uint256",
          "name": "propertyId",
          "type": "uint256"
        },
        {
          "internalType": "string",
          "name": "checkInDate",
          "type": "string"
        },
        {
          "internalType": "string",
          "name": "checkOutDate",
          "type": "string"
        },
        {
          "internalType": "uint256",
          "name": "checkInDay",
          "type": "uint256"
        },
        {
          "internalType": "uint256",
          "name": "checkOutDay",
          "type": "uint256"
        },
        {
          "internalType": "uint256",
          "name": "totalPrice",
          "type": "uint256"
        },
        {
          "internalType": "bool",
          "name": "isConfirmed",
          "type": "bool"
        },
        {
          "internalType": "bool",
          "name": "isDeleted",
          "type": "bool"
        },
        {
          "internalType": "address",
          "name": "renter",
          "type": "address"
        }
      ],
      "stateMutability": "view",
      "type": "function"
    },
    {
      "inputs": [
        {
          "internalType": "uint256",
          "name": "_bookingId",
          "type": "uint256"
        }
      ],
      "name": "confirmBooking",
      "outputs": [],
      "stateMutability": "payable",
      "type": "function"
    },
    {
      "inputs": [
        {
          "internalType": "uint256",
          "name": "_bookingId",
          "type": "uint256"
        }
      ],
      "name": "deleteBooking",
      "outputs": [],
      "stateMutability": "nonpayable",
      "type": "function"
    },
    {
      "inputs": [],
      "name": "getAllActiveProperties",
      "outputs": [
        {
          "components": [
            {
              "internalType": "uint256",
              "name": "id",
              "type": "uint256"
            },
            {
              "internalType": "string",
              "name": "name",
              "type": "string"
            },
            {
              "internalType": "string",
              "name": "description",
              "type": "string"
            },
            {
              "internalType": "string",
              "name": "location",
              "type": "string"
            },
            {
              "internalType": "string[]",
              "name": "images",
              "type": "string[]"
            },
            {
              "internalType": "bool",
              "name": "isActive",
              "type": "bool"
            },
            {
              "internalType": "uint256",
              "name": "price",
              "type": "uint256"
            },
            {
              "internalType": "string",
              "name": "currency",
              "type": "string"
            },
            {
              "internalType": "address",
              "name": "owner",
              "type": "address"
            },
            {
              "internalType": "bool[]",
              "name": "isBooked",
              "type": "bool[]"
            }
          ],
          "internalType": "struct AirBlock.Property[]",
          "name": "",
          "type": "tuple[]"
        }
      ],
      "stateMutability": "view",
      "type": "function"
    },
    {
      "inputs": [],
      "name": "getAllBookings",
      "outputs": [
        {
          "components": [
            {
              "internalType": "uint256",
              "name": "bookingId",
              "type": "uint256"
            },
            {
              "internalType": "uint256",
              "name": "propertyId",
              "type": "uint256"
            },
            {
              "internalType": "string",
              "name": "checkInDate",
              "type": "string"
            },
            {
              "internalType": "string",
              "name": "checkOutDate",
              "type": "string"
            },
            {
              "internalType": "uint256",
              "name": "checkInDay",
              "type": "uint256"
            },
            {
              "internalType": "uint256",
              "name": "checkOutDay",
              "type": "uint256"
            },
            {
              "internalType": "uint256",
              "name": "totalPrice",
              "type": "uint256"
            },
            {
              "internalType": "bool",
              "name": "isConfirmed",
              "type": "bool"
            },
            {
              "internalType": "bool",
              "name": "isDeleted",
              "type": "bool"
            },
            {
              "internalType": "address",
              "name": "renter",
              "type": "address"
            }
          ],
          "internalType": "struct AirBlock.Booking[]",
          "name": "",
          "type": "tuple[]"
        }
      ],
      "stateMutability": "view",
      "type": "function"
    },
    {
      "inputs": [],
      "name": "getAllProperties",
      "outputs": [
        {
          "components": [
            {
              "internalType": "uint256",
              "name": "id",
              "type": "uint256"
            },
            {
              "internalType": "string",
              "name": "name",
              "type": "string"
            },
            {
              "internalType": "string",
              "name": "description",
              "type": "string"
            },
            {
              "internalType": "string",
              "name": "location",
              "type": "string"
            },
            {
              "internalType": "string[]",
              "name": "images",
              "type": "string[]"
            },
            {
              "internalType": "bool",
              "name": "isActive",
              "type": "bool"
            },
            {
              "internalType": "uint256",
              "name": "price",
              "type": "uint256"
            },
            {
              "internalType": "string",
              "name": "currency",
              "type": "string"
            },
            {
              "internalType": "address",
              "name": "owner",
              "type": "address"
            },
            {
              "internalType": "bool[]",
              "name": "isBooked",
              "type": "bool[]"
            }
          ],
          "internalType": "struct AirBlock.Property[]",
          "name": "",
          "type": "tuple[]"
        }
      ],
      "stateMutability": "view",
      "type": "function"
    },
    {
      "inputs": [],
      "name": "getBookingsForTenant",
      "outputs": [
        {
          "components": [
            {
              "internalType": "uint256",
              "name": "bookingId",
              "type": "uint256"
            },
            {
              "internalType": "uint256",
              "name": "propertyId",
              "type": "uint256"
            },
            {
              "internalType": "string",
              "name": "checkInDate",
              "type": "string"
            },
            {
              "internalType": "string",
              "name": "checkOutDate",
              "type": "string"
            },
            {
              "internalType": "uint256",
              "name": "checkInDay",
              "type": "uint256"
            },
            {
              "internalType": "uint256",
              "name": "checkOutDay",
              "type": "uint256"
            },
            {
              "internalType": "uint256",
              "name": "totalPrice",
              "type": "uint256"
            },
            {
              "internalType": "bool",
              "name": "isConfirmed",
              "type": "bool"
            },
            {
              "internalType": "bool",
              "name": "isDeleted",
              "type": "bool"
            },
            {
              "internalType": "address",
              "name": "renter",
              "type": "address"
            }
          ],
          "internalType": "struct AirBlock.Booking[]",
          "name": "",
          "type": "tuple[]"
        }
      ],
      "stateMutability": "view",
      "type": "function"
    },
    {
      "inputs": [],
      "name": "getPropertiesForOwner",
      "outputs": [
        {
          "components": [
            {
              "internalType": "uint256",
              "name": "id",
              "type": "uint256"
            },
            {
              "internalType": "string",
              "name": "name",
              "type": "string"
            },
            {
              "internalType": "string",
              "name": "description",
              "type": "string"
            },
            {
              "internalType": "string",
              "name": "location",
              "type": "string"
            },
            {
              "internalType": "string[]",
              "name": "images",
              "type": "string[]"
            },
            {
              "internalType": "bool",
              "name": "isActive",
              "type": "bool"
            },
            {
              "internalType": "uint256",
              "name": "price",
              "type": "uint256"
            },
            {
              "internalType": "string",
              "name": "currency",
              "type": "string"
            },
            {
              "internalType": "address",
              "name": "owner",
              "type": "address"
            },
            {
              "internalType": "bool[]",
              "name": "isBooked",
              "type": "bool[]"
            }
          ],
          "internalType": "struct AirBlock.Property[]",
          "name": "",
          "type": "tuple[]"
        }
      ],
      "stateMutability": "view",
      "type": "function"
    },
    {
      "inputs": [
        {
          "internalType": "string",
          "name": "name",
          "type": "string"
        },
        {
          "internalType": "string",
          "name": "description",
          "type": "string"
        },
        {
          "internalType": "string",
          "name": "location",
          "type": "string"
        },
        {
          "internalType": "string[]",
          "name": "images",
          "type": "string[]"
        },
        {
          "internalType": "uint256",
          "name": "price",
          "type": "uint256"
        },
        {
          "internalType": "string",
          "name": "currency",
          "type": "string"
        }
      ],
      "name": "listProperty",
      "outputs": [
        {
          "internalType": "uint256",
          "name": "",
          "type": "uint256"
        }
      ],
      "stateMutability": "nonpayable",
      "type": "function"
    },
    {
      "inputs": [
        {
          "internalType": "uint256",
          "name": "_propertyId",
          "type": "uint256"
        }
      ],
      "name": "markPropertyAsInactive",
      "outputs": [],
      "stateMutability": "nonpayable",
      "type": "function"
    },
    {
      "inputs": [
        {
          "internalType": "uint256",
          "name": "_bookingId",
          "type": "uint256"
        },
        {
          "internalType": "string",
          "name": "newCheckInDate",
          "type": "string"
        },
        {
          "internalType": "string",
          "name": "newCheckOutDate",
          "type": "string"
        },
        {
          "internalType": "uint256",
          "name": "newCheckInDay",
          "type": "uint256"
        },
        {
          "internalType": "uint256",
          "name": "newCheckOutDay",
          "type": "uint256"
        }
      ],
      "name": "modifyBooking",
      "outputs": [],
      "stateMutability": "nonpayable",
      "type": "function"
    },
    {
      "inputs": [
        {
          "internalType": "address",
          "name": "",
          "type": "address"
        },
        {
          "internalType": "uint256",
          "name": "",
          "type": "uint256"
        }
      ],
      "name": "owners",
      "outputs": [
        {
          "internalType": "uint256",
          "name": "id",
          "type": "uint256"
        },
        {
          "internalType": "string",
          "name": "name",
          "type": "string"
        },
        {
          "internalType": "string",
          "name": "description",
          "type": "string"
        },
        {
          "internalType": "string",
          "name": "location",
          "type": "string"
        },
        {
          "internalType": "bool",
          "name": "isActive",
          "type": "bool"
        },
        {
          "internalType": "uint256",
          "name": "price",
          "type": "uint256"
        },
        {
          "internalType": "string",
          "name": "currency",
          "type": "string"
        },
        {
          "internalType": "address",
          "name": "owner",
          "type": "address"
        }
      ],
      "stateMutability": "view",
      "type": "function"
    },
    {
      "inputs": [
        {
          "internalType": "uint256",
          "name": "",
          "type": "uint256"
        }
      ],
      "name": "properties",
      "outputs": [
        {
          "internalType": "uint256",
          "name": "id",
          "type": "uint256"
        },
        {
          "internalType": "string",
          "name": "name",
          "type": "string"
        },
        {
          "internalType": "string",
          "name": "description",
          "type": "string"
        },
        {
          "internalType": "string",
          "name": "location",
          "type": "string"
        },
        {
          "internalType": "bool",
          "name": "isActive",
          "type": "bool"
        },
        {
          "internalType": "uint256",
          "name": "price",
          "type": "uint256"
        },
        {
          "internalType": "string",
          "name": "currency",
          "type": "string"
        },
        {
          "internalType": "address",
          "name": "owner",
          "type": "address"
        }
      ],
      "stateMutability": "view",
      "type": "function"
    },
    {
      "inputs": [],
      "name": "propertyId",
      "outputs": [
        {
          "internalType": "uint256",
          "name": "",
          "type": "uint256"
        }
      ],
      "stateMutability": "view",
      "type": "function"
    },
    {
      "inputs": [
        {
          "internalType": "uint256",
          "name": "_propertyId",
          "type": "uint256"
        },
        {
          "internalType": "string",
          "name": "checkInDate",
          "type": "string"
        },
        {
          "internalType": "string",
          "name": "checkOutDate",
          "type": "string"
        },
        {
          "internalType": "uint256",
          "name": "checkInDay",
          "type": "uint256"
        },
        {
          "internalType": "uint256",
          "name": "checkOutDay",
          "type": "uint256"
        }
      ],
      "name": "rentProperty",
      "outputs": [],
      "stateMutability": "nonpayable",
      "type": "function"
    }
  ],
  "bytecode": "0x608060405234801561001057600080fd5b50615b7680620000216000396000f3fe6080604052600436106100f35760003560e01c80639b3e27871161008a578063ee7a3b8e11610059578063ee7a3b8e1461032b578063f7b1080814610356578063fe53d3bc1461039a578063feca1516146103c5576100f3565b80639b3e27871461026c578063b3e3f803146102b0578063b5e73dd0146102d9578063dacc8f8314610302576100f3565b80634245f2fe116100c65780634245f2fe146101bd5780634748224b146101e857806354056b6914610225578063659bba9d14610241576100f3565b80630a10df7c146100f85780631dab301e146101235780633ae7f0df146101695780633d51402c14610192575b600080fd5b34801561010457600080fd5b5061010d6103f0565b60405161011a919061533c565b60405180910390f35b34801561012f57600080fd5b5061014a60048036038101906101459190614b55565b6103f6565b6040516101609a999897969594939291906153f1565b60405180910390f35b34801561017557600080fd5b50610190600480360381019061018b9190614b55565b610594565b005b34801561019e57600080fd5b506101a7610e70565b6040516101b4919061521a565b60405180910390f35b3480156101c957600080fd5b506101d261139f565b6040516101df91906151f8565b60405180910390f35b3480156101f457600080fd5b5061020f600480360381019061020a9190614a54565b61168e565b60405161021c919061533c565b60405180910390f35b61023f600480360381019061023a9190614b55565b611a92565b005b34801561024d57600080fd5b506102566123bb565b604051610263919061521a565b60405180910390f35b34801561027857600080fd5b50610293600480360381019061028e9190614a18565b6128a5565b6040516102a7989796959493929190615357565b60405180910390f35b3480156102bc57600080fd5b506102d760048036038101906102d29190614b55565b612b57565b005b3480156102e557600080fd5b5061030060048036038101906102fb9190614b7e565b612c2b565b005b34801561030e57600080fd5b5061032960048036038101906103249190614b7e565b612d95565b005b34801561033757600080fd5b5061034061380e565b60405161034d919061533c565b60405180910390f35b34801561036257600080fd5b5061037d60048036038101906103789190614b55565b613814565b604051610391989796959493929190615357565b60405180910390f35b3480156103a657600080fd5b506103af613aa9565b6040516103bc919061521a565b60405180910390f35b3480156103d157600080fd5b506103da613fee565b6040516103e791906151f8565b60405180910390f35b60035481565b60026020528060005260406000206000915090508060000154908060010154908060020180546104259061579c565b80601f01602080910402602001604051908101604052809291908181526020018280546104519061579c565b801561049e5780601f106104735761010080835404028352916020019161049e565b820191906000526020600020905b81548152906001019060200180831161048157829003601f168201915b5050505050908060030180546104b39061579c565b80601f01602080910402602001604051908101604052809291908181526020018280546104df9061579c565b801561052c5780601f106105015761010080835404028352916020019161052c565b820191906000526020600020905b81548152906001019060200180831161050f57829003601f168201915b5050505050908060040154908060050154908060060154908060070160009054906101000a900460ff16908060070160019054906101000a900460ff16908060070160029054906101000a900473ffffffffffffffffffffffffffffffffffffffff1690508a565b6000600260008381526020019081526020016000206040518061014001604052908160008201548152602001600182015481526020016002820180546105d99061579c565b80601f01602080910402602001604051908101604052809291908181526020018280546106059061579c565b80156106525780601f1061062757610100808354040283529160200191610652565b820191906000526020600020905b81548152906001019060200180831161063557829003601f168201915b5050505050815260200160038201805461066b9061579c565b80601f01602080910402602001604051908101604052809291908181526020018280546106979061579c565b80156106e45780601f106106b9576101008083540402835291602001916106e4565b820191906000526020600020905b8154815290600101906020018083116106c757829003601f168201915b505050505081526020016004820154815260200160058201548152602001600682015481526020016007820160009054906101000a900460ff161515151581526020016007820160019054906101000a900460ff161515151581526020016007820160029054906101000a900473ffffffffffffffffffffffffffffffffffffffff1673ffffffffffffffffffffffffffffffffffffffff1673ffffffffffffffffffffffffffffffffffffffff1681525050905060008060008360200151815260200190815260200160002060405180610140016040529081600082015481526020016001820180546107d79061579c565b80601f01602080910402602001604051908101604052809291908181526020018280546108039061579c565b80156108505780601f1061082557610100808354040283529160200191610850565b820191906000526020600020905b81548152906001019060200180831161083357829003601f168201915b505050505081526020016002820180546108699061579c565b80601f01602080910402602001604051908101604052809291908181526020018280546108959061579c565b80156108e25780601f106108b7576101008083540402835291602001916108e2565b820191906000526020600020905b8154815290600101906020018083116108c557829003601f168201915b505050505081526020016003820180546108fb9061579c565b80601f01602080910402602001604051908101604052809291908181526020018280546109279061579c565b80156109745780601f1061094957610100808354040283529160200191610974565b820191906000526020600020905b81548152906001019060200180831161095757829003601f168201915b5050505050815260200160048201805480602002602001604051908101604052809291908181526020016000905b82821015610a4e5783829060005260206000200180546109c19061579c565b80601f01602080910402602001604051908101604052809291908181526020018280546109ed9061579c565b8015610a3a5780601f10610a0f57610100808354040283529160200191610a3a565b820191906000526020600020905b815481529060010190602001808311610a1d57829003601f168201915b5050505050815260200190600101906109a2565b5050505081526020016005820160009054906101000a900460ff1615151515815260200160068201548152602001600782018054610a8b9061579c565b80601f0160208091040260200160405190810160405280929190818152602001828054610ab79061579c565b8015610b045780601f10610ad957610100808354040283529160200191610b04565b820191906000526020600020905b815481529060010190602001808311610ae757829003601f168201915b505050505081526020016008820160009054906101000a900473ffffffffffffffffffffffffffffffffffffffff1673ffffffffffffffffffffffffffffffffffffffff1673ffffffffffffffffffffffffffffffffffffffff16815260200160098201805480602002602001604051908101604052809291908181526020018280548015610bd757602002820191906000526020600020906000905b82829054906101000a900460ff16151581526020019060010190602082600001049283019260010382029150808411610ba15790505b5050505050815250509050600015158260e00151151514610c2d576040517f08c379a0000000000000000000000000000000000000000000000000000000008152600401610c24906152dc565b60405180910390fd5b3373ffffffffffffffffffffffffffffffffffffffff1682610120015173ffffffffffffffffffffffffffffffffffffffff1614610ca0576040517f08c379a0000000000000000000000000000000000000000000000000000000008152600401610c979061523c565b60405180910390fd5b6000826080015190505b8260a00151811015610d1b5760008261012001518281518110610cf6577f4e487b7100000000000000000000000000000000000000000000000000000000600052603260045260246000fd5b6020026020010190151590811515815250508080610d13906157ff565b915050610caa565b50600182610100019015159081151581525050816002600085815260200190815260200160002060008201518160000155602082015181600101556040820151816002019080519060200190610d729291906145f1565b506060820151816003019080519060200190610d8f9291906145f1565b506080820151816004015560a0820151816005015560c0820151816006015560e08201518160070160006101000a81548160ff0219169083151502179055506101008201518160070160016101000a81548160ff0219169083151502179055506101208201518160070160026101000a81548173ffffffffffffffffffffffffffffffffffffffff021916908373ffffffffffffffffffffffffffffffffffffffff16021790555090505081600001517f0ff3206a46833fa9931ace1eef46f45f22c9987d2d8b5f862bc92b92dd494e0c60405160405180910390a2505050565b6060600060045467ffffffffffffffff811115610eb6577f4e487b7100000000000000000000000000000000000000000000000000000000600052604160045260246000fd5b604051908082528060200260200182016040528015610eef57816020015b610edc614677565b815260200190600190039081610ed45790505b50905060005b600454811015611397576000808281526020019081526020016000206040518061014001604052908160008201548152602001600182018054610f379061579c565b80601f0160208091040260200160405190810160405280929190818152602001828054610f639061579c565b8015610fb05780601f10610f8557610100808354040283529160200191610fb0565b820191906000526020600020905b815481529060010190602001808311610f9357829003601f168201915b50505050508152602001600282018054610fc99061579c565b80601f0160208091040260200160405190810160405280929190818152602001828054610ff59061579c565b80156110425780601f1061101757610100808354040283529160200191611042565b820191906000526020600020905b81548152906001019060200180831161102557829003601f168201915b5050505050815260200160038201805461105b9061579c565b80601f01602080910402602001604051908101604052809291908181526020018280546110879061579c565b80156110d45780601f106110a9576101008083540402835291602001916110d4565b820191906000526020600020905b8154815290600101906020018083116110b757829003601f168201915b5050505050815260200160048201805480602002602001604051908101604052809291908181526020016000905b828210156111ae5783829060005260206000200180546111219061579c565b80601f016020809104026020016040519081016040528092919081815260200182805461114d9061579c565b801561119a5780601f1061116f5761010080835404028352916020019161119a565b820191906000526020600020905b81548152906001019060200180831161117d57829003601f168201915b505050505081526020019060010190611102565b5050505081526020016005820160009054906101000a900460ff16151515158152602001600682015481526020016007820180546111eb9061579c565b80601f01602080910402602001604051908101604052809291908181526020018280546112179061579c565b80156112645780601f1061123957610100808354040283529160200191611264565b820191906000526020600020905b81548152906001019060200180831161124757829003601f168201915b505050505081526020016008820160009054906101000a900473ffffffffffffffffffffffffffffffffffffffff1673ffffffffffffffffffffffffffffffffffffffff1673ffffffffffffffffffffffffffffffffffffffff1681526020016009820180548060200260200160405190810160405280929190818152602001828054801561133757602002820191906000526020600020906000905b82829054906101000a900460ff161515815260200190600101906020826000010492830192600103820291508084116113015790505b505050505081525050828281518110611379577f4e487b7100000000000000000000000000000000000000000000000000000000600052603260045260246000fd5b6020026020010181905250808061138f906157ff565b915050610ef5565b508091505090565b6060600060035467ffffffffffffffff8111156113e5577f4e487b7100000000000000000000000000000000000000000000000000000000600052604160045260246000fd5b60405190808252806020026020018201604052801561141e57816020015b61140b6146e2565b8152602001906001900390816114035790505b50905060005b60035481101561168657600260008281526020019081526020016000206040518061014001604052908160008201548152602001600182015481526020016002820180546114719061579c565b80601f016020809104026020016040519081016040528092919081815260200182805461149d9061579c565b80156114ea5780601f106114bf576101008083540402835291602001916114ea565b820191906000526020600020905b8154815290600101906020018083116114cd57829003601f168201915b505050505081526020016003820180546115039061579c565b80601f016020809104026020016040519081016040528092919081815260200182805461152f9061579c565b801561157c5780601f106115515761010080835404028352916020019161157c565b820191906000526020600020905b81548152906001019060200180831161155f57829003601f168201915b505050505081526020016004820154815260200160058201548152602001600682015481526020016007820160009054906101000a900460ff161515151581526020016007820160019054906101000a900460ff161515151581526020016007820160029054906101000a900473ffffffffffffffffffffffffffffffffffffffff1673ffffffffffffffffffffffffffffffffffffffff1673ffffffffffffffffffffffffffffffffffffffff1681525050828281518110611668577f4e487b7100000000000000000000000000000000000000000000000000000000600052603260045260246000fd5b6020026020010181905250808061167e906157ff565b915050611424565b508091505090565b600080600454905060006040518061014001604052808381526020018a81526020018981526020018881526020018781526020016001151581526020018681526020018581526020013373ffffffffffffffffffffffffffffffffffffffff16815260200161016d67ffffffffffffffff811115611735577f4e487b7100000000000000000000000000000000000000000000000000000000600052604160045260246000fd5b6040519080825280602002602001820160405280156117635781602001602082028036833780820191505090505b508152509050806000808481526020019081526020016000206000820151816000015560208201518160010190805190602001906117a29291906145f1565b5060408201518160020190805190602001906117bf9291906145f1565b5060608201518160030190805190602001906117dc9291906145f1565b5060808201518160040190805190602001906117f992919061474f565b5060a08201518160050160006101000a81548160ff02191690831515021790555060c0820151816006015560e08201518160070190805190602001906118409291906145f1565b506101008201518160080160006101000a81548173ffffffffffffffffffffffffffffffffffffffff021916908373ffffffffffffffffffffffffffffffffffffffff1602179055506101208201518160090190805190602001906118a69291906147af565b50905050600160003373ffffffffffffffffffffffffffffffffffffffff1673ffffffffffffffffffffffffffffffffffffffff1681526020019081526020016000208190806001815401808255809150506001900390600052602060002090600a02016000909190919091506000820151816000015560208201518160010190805190602001906119399291906145f1565b5060408201518160020190805190602001906119569291906145f1565b5060608201518160030190805190602001906119739291906145f1565b50608082015181600401908051906020019061199092919061474f565b5060a08201518160050160006101000a81548160ff02191690831515021790555060c0820151816006015560e08201518160070190805190602001906119d79291906145f1565b506101008201518160080160006101000a81548173ffffffffffffffffffffffffffffffffffffffff021916908373ffffffffffffffffffffffffffffffffffffffff160217905550610120820151816009019080519060200190611a3d9291906147af565b50505060046000815480929190611a53906157ff565b919050557f49b7a39e21349b16cf820bbd35d2bc2d9f04dac75faa535510fc24d172b34afd60405160405180910390a281925050509695505050505050565b600060026000838152602001908152602001600020604051806101400160405290816000820154815260200160018201548152602001600282018054611ad79061579c565b80601f0160208091040260200160405190810160405280929190818152602001828054611b039061579c565b8015611b505780601f10611b2557610100808354040283529160200191611b50565b820191906000526020600020905b815481529060010190602001808311611b3357829003601f168201915b50505050508152602001600382018054611b699061579c565b80601f0160208091040260200160405190810160405280929190818152602001828054611b959061579c565b8015611be25780601f10611bb757610100808354040283529160200191611be2565b820191906000526020600020905b815481529060010190602001808311611bc557829003601f168201915b505050505081526020016004820154815260200160058201548152602001600682015481526020016007820160009054906101000a900460ff161515151581526020016007820160019054906101000a900460ff161515151581526020016007820160029054906101000a900473ffffffffffffffffffffffffffffffffffffffff1673ffffffffffffffffffffffffffffffffffffffff1673ffffffffffffffffffffffffffffffffffffffff168152505090506000806000836020015181526020019081526020016000206040518061014001604052908160008201548152602001600182018054611cd59061579c565b80601f0160208091040260200160405190810160405280929190818152602001828054611d019061579c565b8015611d4e5780601f10611d2357610100808354040283529160200191611d4e565b820191906000526020600020905b815481529060010190602001808311611d3157829003601f168201915b50505050508152602001600282018054611d679061579c565b80601f0160208091040260200160405190810160405280929190818152602001828054611d939061579c565b8015611de05780601f10611db557610100808354040283529160200191611de0565b820191906000526020600020905b815481529060010190602001808311611dc357829003601f168201915b50505050508152602001600382018054611df99061579c565b80601f0160208091040260200160405190810160405280929190818152602001828054611e259061579c565b8015611e725780601f10611e4757610100808354040283529160200191611e72565b820191906000526020600020905b815481529060010190602001808311611e5557829003601f168201915b5050505050815260200160048201805480602002602001604051908101604052809291908181526020016000905b82821015611f4c578382906000526020600020018054611ebf9061579c565b80601f0160208091040260200160405190810160405280929190818152602001828054611eeb9061579c565b8015611f385780601f10611f0d57610100808354040283529160200191611f38565b820191906000526020600020905b815481529060010190602001808311611f1b57829003601f168201915b505050505081526020019060010190611ea0565b5050505081526020016005820160009054906101000a900460ff1615151515815260200160068201548152602001600782018054611f899061579c565b80601f0160208091040260200160405190810160405280929190818152602001828054611fb59061579c565b80156120025780601f10611fd757610100808354040283529160200191612002565b820191906000526020600020905b815481529060010190602001808311611fe557829003601f168201915b505050505081526020016008820160009054906101000a900473ffffffffffffffffffffffffffffffffffffffff1673ffffffffffffffffffffffffffffffffffffffff1673ffffffffffffffffffffffffffffffffffffffff168152602001600982018054806020026020016040519081016040528092919081815260200182805480156120d557602002820191906000526020600020906000905b82829054906101000a900460ff1615158152602001906001019060208260000104928301926001038202915080841161209f5790505b50505050508152505090506000151582610100015115151461212c576040517f08c379a00000000000000000000000000000000000000000000000000000000081526004016121239061525c565b60405180910390fd5b600115158160a00151151514612177576040517f08c379a000000000000000000000000000000000000000000000000000000000815260040161216e9061527c565b60405180910390fd5b3373ffffffffffffffffffffffffffffffffffffffff1682610120015173ffffffffffffffffffffffffffffffffffffffff16146121ea576040517f08c379a00000000000000000000000000000000000000000000000000000000081526004016121e19061523c565b60405180910390fd5b600082608001518360a0015161220091906156de565b8260c0015161220f9190615684565b905080341015612254576040517f08c379a000000000000000000000000000000000000000000000000000000000815260040161224b9061529c565b60405180910390fd5b60018360e00190151590811515815250508260026000868152602001908152602001600020600082015181600001556020820151816001015560408201518160020190805190602001906122a99291906145f1565b5060608201518160030190805190602001906122c69291906145f1565b506080820151816004015560a0820151816005015560c0820151816006015560e08201518160070160006101000a81548160ff0219169083151502179055506101008201518160070160016101000a81548160ff0219169083151502179055506101208201518160070160026101000a81548173ffffffffffffffffffffffffffffffffffffffff021916908373ffffffffffffffffffffffffffffffffffffffff1602179055509050506123848261010001518460c00151614348565b82600001517f9b54a911706dc6c1c84e0e238724637bd021bf87cd958124c8b71e4664677c7560405160405180910390a250505050565b6060806000805b60045481101561289c5760008082815260200190815260200160002060050160009054906101000a900460ff161561288957600080828152602001908152602001600020604051806101400160405290816000820154815260200160018201805461242c9061579c565b80601f01602080910402602001604051908101604052809291908181526020018280546124589061579c565b80156124a55780601f1061247a576101008083540402835291602001916124a5565b820191906000526020600020905b81548152906001019060200180831161248857829003601f168201915b505050505081526020016002820180546124be9061579c565b80601f01602080910402602001604051908101604052809291908181526020018280546124ea9061579c565b80156125375780601f1061250c57610100808354040283529160200191612537565b820191906000526020600020905b81548152906001019060200180831161251a57829003601f168201915b505050505081526020016003820180546125509061579c565b80601f016020809104026020016040519081016040528092919081815260200182805461257c9061579c565b80156125c95780601f1061259e576101008083540402835291602001916125c9565b820191906000526020600020905b8154815290600101906020018083116125ac57829003601f168201915b5050505050815260200160048201805480602002602001604051908101604052809291908181526020016000905b828210156126a35783829060005260206000200180546126169061579c565b80601f01602080910402602001604051908101604052809291908181526020018280546126429061579c565b801561268f5780601f106126645761010080835404028352916020019161268f565b820191906000526020600020905b81548152906001019060200180831161267257829003601f168201915b5050505050815260200190600101906125f7565b5050505081526020016005820160009054906101000a900460ff16151515158152602001600682015481526020016007820180546126e09061579c565b80601f016020809104026020016040519081016040528092919081815260200182805461270c9061579c565b80156127595780601f1061272e57610100808354040283529160200191612759565b820191906000526020600020905b81548152906001019060200180831161273c57829003601f168201915b505050505081526020016008820160009054906101000a900473ffffffffffffffffffffffffffffffffffffffff1673ffffffffffffffffffffffffffffffffffffffff1673ffffffffffffffffffffffffffffffffffffffff1681526020016009820180548060200260200160405190810160405280929190818152602001828054801561282c57602002820191906000526020600020906000905b82829054906101000a900460ff161515815260200190600101906020826000010492830192600103820291508084116127f65790505b50505050508152505083838151811061286e577f4e487b7100000000000000000000000000000000000000000000000000000000600052603260045260246000fd5b6020026020010181905250600182612886919061562e565b91505b8080612894906157ff565b9150506123c2565b50819250505090565b600160205281600052604060002081815481106128c157600080fd5b90600052602060002090600a0201600091509150508060000154908060010180546128eb9061579c565b80601f01602080910402602001604051908101604052809291908181526020018280546129179061579c565b80156129645780601f1061293957610100808354040283529160200191612964565b820191906000526020600020905b81548152906001019060200180831161294757829003601f168201915b5050505050908060020180546129799061579c565b80601f01602080910402602001604051908101604052809291908181526020018280546129a59061579c565b80156129f25780601f106129c7576101008083540402835291602001916129f2565b820191906000526020600020905b8154815290600101906020018083116129d557829003601f168201915b505050505090806003018054612a079061579c565b80601f0160208091040260200160405190810160405280929190818152602001828054612a339061579c565b8015612a805780601f10612a5557610100808354040283529160200191612a80565b820191906000526020600020905b815481529060010190602001808311612a6357829003601f168201915b5050505050908060050160009054906101000a900460ff1690806006015490806007018054612aae9061579c565b80601f0160208091040260200160405190810160405280929190818152602001828054612ada9061579c565b8015612b275780601f10612afc57610100808354040283529160200191612b27565b820191906000526020600020905b815481529060010190602001808311612b0a57829003601f168201915b5050505050908060080160009054906101000a900473ffffffffffffffffffffffffffffffffffffffff16905088565b3373ffffffffffffffffffffffffffffffffffffffff1660008083815260200190815260200160002060080160009054906101000a900473ffffffffffffffffffffffffffffffffffffffff1673ffffffffffffffffffffffffffffffffffffffff1614612bfa576040517f08c379a0000000000000000000000000000000000000000000000000000000008152600401612bf19061531c565b60405180910390fd5b600080600083815260200190815260200160002060050160006101000a81548160ff02191690831515021790555050565b60008060008781526020019081526020016000209050600115158160050160009054906101000a900460ff16151514612c99576040517f08c379a0000000000000000000000000000000000000000000000000000000008152600401612c909061527c565b60405180910390fd5b60008390505b82811015612d5d5760011515826009018281548110612ce7577f4e487b7100000000000000000000000000000000000000000000000000000000600052603260045260246000fd5b90600052602060002090602091828204019190069054906101000a900460ff1615151415612d4a576040517f08c379a0000000000000000000000000000000000000000000000000000000008152600401612d41906152bc565b60405180910390fd5b8080612d55906157ff565b915050612c9f565b5060008383612d6c91906156de565b8260060154612d7b9190615684565b9050612d8c87878787878633614393565b50505050505050565b600060026000878152602001908152602001600020604051806101400160405290816000820154815260200160018201548152602001600282018054612dda9061579c565b80601f0160208091040260200160405190810160405280929190818152602001828054612e069061579c565b8015612e535780601f10612e2857610100808354040283529160200191612e53565b820191906000526020600020905b815481529060010190602001808311612e3657829003601f168201915b50505050508152602001600382018054612e6c9061579c565b80601f0160208091040260200160405190810160405280929190818152602001828054612e989061579c565b8015612ee55780601f10612eba57610100808354040283529160200191612ee5565b820191906000526020600020905b815481529060010190602001808311612ec857829003601f168201915b505050505081526020016004820154815260200160058201548152602001600682015481526020016007820160009054906101000a900460ff161515151581526020016007820160019054906101000a900460ff161515151581526020016007820160029054906101000a900473ffffffffffffffffffffffffffffffffffffffff1673ffffffffffffffffffffffffffffffffffffffff1673ffffffffffffffffffffffffffffffffffffffff168152505090506000806000836020015181526020019081526020016000206040518061014001604052908160008201548152602001600182018054612fd89061579c565b80601f01602080910402602001604051908101604052809291908181526020018280546130049061579c565b80156130515780601f1061302657610100808354040283529160200191613051565b820191906000526020600020905b81548152906001019060200180831161303457829003601f168201915b5050505050815260200160028201805461306a9061579c565b80601f01602080910402602001604051908101604052809291908181526020018280546130969061579c565b80156130e35780601f106130b8576101008083540402835291602001916130e3565b820191906000526020600020905b8154815290600101906020018083116130c657829003601f168201915b505050505081526020016003820180546130fc9061579c565b80601f01602080910402602001604051908101604052809291908181526020018280546131289061579c565b80156131755780601f1061314a57610100808354040283529160200191613175565b820191906000526020600020905b81548152906001019060200180831161315857829003601f168201915b5050505050815260200160048201805480602002602001604051908101604052809291908181526020016000905b8282101561324f5783829060005260206000200180546131c29061579c565b80601f01602080910402602001604051908101604052809291908181526020018280546131ee9061579c565b801561323b5780601f106132105761010080835404028352916020019161323b565b820191906000526020600020905b81548152906001019060200180831161321e57829003601f168201915b5050505050815260200190600101906131a3565b5050505081526020016005820160009054906101000a900460ff161515151581526020016006820154815260200160078201805461328c9061579c565b80601f01602080910402602001604051908101604052809291908181526020018280546132b89061579c565b80156133055780601f106132da57610100808354040283529160200191613305565b820191906000526020600020905b8154815290600101906020018083116132e857829003601f168201915b505050505081526020016008820160009054906101000a900473ffffffffffffffffffffffffffffffffffffffff1673ffffffffffffffffffffffffffffffffffffffff1673ffffffffffffffffffffffffffffffffffffffff168152602001600982018054806020026020016040519081016040528092919081815260200182805480156133d857602002820191906000526020600020906000905b82829054906101000a900460ff161515815260200190600101906020826000010492830192600103820291508084116133a25790505b5050505050815250509050600115158160a0015115151461342e576040517f08c379a00000000000000000000000000000000000000000000000000000000081526004016134259061527c565b60405180910390fd5b6000151582610100015115151461347a576040517f08c379a00000000000000000000000000000000000000000000000000000000081526004016134719061525c565b60405180910390fd5b3373ffffffffffffffffffffffffffffffffffffffff1682610120015173ffffffffffffffffffffffffffffffffffffffff16146134ed576040517f08c379a00000000000000000000000000000000000000000000000000000000081526004016134e49061523c565b60405180910390fd5b60008490505b8381101561359b5760011515826101200151828151811061353d577f4e487b7100000000000000000000000000000000000000000000000000000000600052603260045260246000fd5b602002602001015115151415613588576040517f08c379a000000000000000000000000000000000000000000000000000000000815260040161357f906152bc565b60405180910390fd5b8080613593906157ff565b9150506134f3565b506000826080015190505b8260a0015181101561361757600082610120015182815181106135f2577f4e487b7100000000000000000000000000000000000000000000000000000000600052603260045260246000fd5b602002602001019015159081151581525050808061360f906157ff565b9150506135a6565b5060008490505b8381101561368b5760018261012001518281518110613666577f4e487b7100000000000000000000000000000000000000000000000000000000600052603260045260246000fd5b6020026020010190151590811515815250508080613683906157ff565b91505061361e565b506000848461369a91906156de565b8260c001516136a99190615684565b9050808360c001818152505086836040018190525085836060018190525082600260008a81526020019081526020016000206000820151816000015560208201518160010155604082015181600201908051906020019061370b9291906145f1565b5060608201518160030190805190602001906137289291906145f1565b506080820151816004015560a0820151816005015560c0820151816006015560e08201518160070160006101000a81548160ff0219169083151502179055506101008201518160070160016101000a81548160ff0219169083151502179055506101208201518160070160026101000a81548173ffffffffffffffffffffffffffffffffffffffff021916908373ffffffffffffffffffffffffffffffffffffffff16021790555090505082600001517f711ef775b4e64f3a5b4c993fa8439667595f524115c7774d2b14a6b69c06ed6f60405160405180910390a25050505050505050565b60045481565b600060205280600052604060002060009150905080600001549080600101805461383d9061579c565b80601f01602080910402602001604051908101604052809291908181526020018280546138699061579c565b80156138b65780601f1061388b576101008083540402835291602001916138b6565b820191906000526020600020905b81548152906001019060200180831161389957829003601f168201915b5050505050908060020180546138cb9061579c565b80601f01602080910402602001604051908101604052809291908181526020018280546138f79061579c565b80156139445780601f1061391957610100808354040283529160200191613944565b820191906000526020600020905b81548152906001019060200180831161392757829003601f168201915b5050505050908060030180546139599061579c565b80601f01602080910402602001604051908101604052809291908181526020018280546139859061579c565b80156139d25780601f106139a7576101008083540402835291602001916139d2565b820191906000526020600020905b8154815290600101906020018083116139b557829003601f168201915b5050505050908060050160009054906101000a900460ff1690806006015490806007018054613a009061579c565b80601f0160208091040260200160405190810160405280929190818152602001828054613a2c9061579c565b8015613a795780601f10613a4e57610100808354040283529160200191613a79565b820191906000526020600020905b815481529060010190602001808311613a5c57829003601f168201915b5050505050908060080160009054906101000a900473ffffffffffffffffffffffffffffffffffffffff16905088565b60606000600160003373ffffffffffffffffffffffffffffffffffffffff1673ffffffffffffffffffffffffffffffffffffffff1681526020019081526020016000208054905011613b30576040517f08c379a0000000000000000000000000000000000000000000000000000000008152600401613b27906152fc565b60405180910390fd5b600160003373ffffffffffffffffffffffffffffffffffffffff1673ffffffffffffffffffffffffffffffffffffffff168152602001908152602001600020805480602002602001604051908101604052809291908181526020016000905b82821015613fe557838290600052602060002090600a02016040518061014001604052908160008201548152602001600182018054613bcd9061579c565b80601f0160208091040260200160405190810160405280929190818152602001828054613bf99061579c565b8015613c465780601f10613c1b57610100808354040283529160200191613c46565b820191906000526020600020905b815481529060010190602001808311613c2957829003601f168201915b50505050508152602001600282018054613c5f9061579c565b80601f0160208091040260200160405190810160405280929190818152602001828054613c8b9061579c565b8015613cd85780601f10613cad57610100808354040283529160200191613cd8565b820191906000526020600020905b815481529060010190602001808311613cbb57829003601f168201915b50505050508152602001600382018054613cf19061579c565b80601f0160208091040260200160405190810160405280929190818152602001828054613d1d9061579c565b8015613d6a5780601f10613d3f57610100808354040283529160200191613d6a565b820191906000526020600020905b815481529060010190602001808311613d4d57829003601f168201915b5050505050815260200160048201805480602002602001604051908101604052809291908181526020016000905b82821015613e44578382906000526020600020018054613db79061579c565b80601f0160208091040260200160405190810160405280929190818152602001828054613de39061579c565b8015613e305780601f10613e0557610100808354040283529160200191613e30565b820191906000526020600020905b815481529060010190602001808311613e1357829003601f168201915b505050505081526020019060010190613d98565b5050505081526020016005820160009054906101000a900460ff1615151515815260200160068201548152602001600782018054613e819061579c565b80601f0160208091040260200160405190810160405280929190818152602001828054613ead9061579c565b8015613efa5780601f10613ecf57610100808354040283529160200191613efa565b820191906000526020600020905b815481529060010190602001808311613edd57829003601f168201915b505050505081526020016008820160009054906101000a900473ffffffffffffffffffffffffffffffffffffffff1673ffffffffffffffffffffffffffffffffffffffff1673ffffffffffffffffffffffffffffffffffffffff16815260200160098201805480602002602001604051908101604052809291908181526020018280548015613fcd57602002820191906000526020600020906000905b82829054906101000a900460ff16151581526020019060010190602082600001049283019260010382029150808411613f975790505b50505050508152505081526020019060010190613b8f565b50505050905090565b6060600060035467ffffffffffffffff811115614034577f4e487b7100000000000000000000000000000000000000000000000000000000600052604160045260246000fd5b60405190808252806020026020018201604052801561406d57816020015b61405a6146e2565b8152602001906001900390816140525790505b50905060005b600354811015614340573373ffffffffffffffffffffffffffffffffffffffff166002600083815260200190815260200160002060070160029054906101000a900473ffffffffffffffffffffffffffffffffffffffff1673ffffffffffffffffffffffffffffffffffffffff16141561432d576002600082815260200190815260200160002060405180610140016040529081600082015481526020016001820154815260200160028201805461412a9061579c565b80601f01602080910402602001604051908101604052809291908181526020018280546141569061579c565b80156141a35780601f10614178576101008083540402835291602001916141a3565b820191906000526020600020905b81548152906001019060200180831161418657829003601f168201915b505050505081526020016003820180546141bc9061579c565b80601f01602080910402602001604051908101604052809291908181526020018280546141e89061579c565b80156142355780601f1061420a57610100808354040283529160200191614235565b820191906000526020600020905b81548152906001019060200180831161421857829003601f168201915b505050505081526020016004820154815260200160058201548152602001600682015481526020016007820160009054906101000a900460ff161515151581526020016007820160019054906101000a900460ff161515151581526020016007820160029054906101000a900473ffffffffffffffffffffffffffffffffffffffff1673ffffffffffffffffffffffffffffffffffffffff1673ffffffffffffffffffffffffffffffffffffffff1681525050828281518110614321577f4e487b7100000000000000000000000000000000000000000000000000000000600052603260045260246000fd5b60200260200101819052505b8080614338906157ff565b915050614073565b508091505090565b8173ffffffffffffffffffffffffffffffffffffffff166108fc829081150290604051600060405180830381858888f1935050505015801561438e573d6000803e3d6000fd5b505050565b60405180610140016040528060035481526020018881526020018781526020018681526020018581526020018481526020018381526020016000151581526020016000151581526020018273ffffffffffffffffffffffffffffffffffffffff168152506002600060035481526020019081526020016000206000820151816000015560208201518160010155604082015181600201908051906020019061443c9291906145f1565b5060608201518160030190805190602001906144599291906145f1565b506080820151816004015560a0820151816005015560c0820151816006015560e08201518160070160006101000a81548160ff0219169083151502179055506101008201518160070160016101000a81548160ff0219169083151502179055506101208201518160070160026101000a81548173ffffffffffffffffffffffffffffffffffffffff021916908373ffffffffffffffffffffffffffffffffffffffff1602179055509050506000806000898152602001908152602001600020905060008590505b848110156145a2576001826009018281548110614566577f4e487b7100000000000000000000000000000000000000000000000000000000600052603260045260246000fd5b90600052602060002090602091828204019190066101000a81548160ff021916908315150217905550808061459a906157ff565b915050614520565b50600360008154809291906145b6906157ff565b91905055887f4f65de66b4cd3e97fb943ca503efa62b328170ad1a0aac0e9c979a164a317b3860405160405180910390a35050505050505050565b8280546145fd9061579c565b90600052602060002090601f01602090048101928261461f5760008555614666565b82601f1061463857805160ff1916838001178555614666565b82800160010185558215614666579182015b8281111561466557825182559160200191906001019061464a565b5b5090506146739190614855565b5090565b60405180610140016040528060008152602001606081526020016060815260200160608152602001606081526020016000151581526020016000815260200160608152602001600073ffffffffffffffffffffffffffffffffffffffff168152602001606081525090565b60405180610140016040528060008152602001600081526020016060815260200160608152602001600081526020016000815260200160008152602001600015158152602001600015158152602001600073ffffffffffffffffffffffffffffffffffffffff1681525090565b82805482825590600052602060002090810192821561479e579160200282015b8281111561479d57825182908051906020019061478d9291906145f1565b509160200191906001019061476f565b5b5090506147ab9190614872565b5090565b82805482825590600052602060002090601f016020900481019282156148445791602002820160005b8382111561481557835183826101000a81548160ff02191690831515021790555092602001926001016020816000010492830192600103026147d8565b80156148425782816101000a81549060ff0219169055600101602081600001049283019260010302614815565b505b5090506148519190614855565b5090565b5b8082111561486e576000816000905550600101614856565b5090565b5b8082111561489257600081816148899190614896565b50600101614873565b5090565b5080546148a29061579c565b6000825580601f106148b457506148d3565b601f0160209004906000526020600020908101906148d29190614855565b5b50565b60006148e96148e4846154c0565b61549b565b9050808382526020820190508285602086028201111561490857600080fd5b60005b8581101561495257813567ffffffffffffffff81111561492a57600080fd5b80860161493789826149d9565b8552602085019450602084019350505060018101905061490b565b5050509392505050565b600061496f61496a846154ec565b61549b565b90508281526020810184848401111561498757600080fd5b61499284828561575a565b509392505050565b6000813590506149a981615b12565b92915050565b600082601f8301126149c057600080fd5b81356149d08482602086016148d6565b91505092915050565b600082601f8301126149ea57600080fd5b81356149fa84826020860161495c565b91505092915050565b600081359050614a1281615b29565b92915050565b60008060408385031215614a2b57600080fd5b6000614a398582860161499a565b9250506020614a4a85828601614a03565b9150509250929050565b60008060008060008060c08789031215614a6d57600080fd5b600087013567ffffffffffffffff811115614a8757600080fd5b614a9389828a016149d9565b965050602087013567ffffffffffffffff811115614ab057600080fd5b614abc89828a016149d9565b955050604087013567ffffffffffffffff811115614ad957600080fd5b614ae589828a016149d9565b945050606087013567ffffffffffffffff811115614b0257600080fd5b614b0e89828a016149af565b9350506080614b1f89828a01614a03565b92505060a087013567ffffffffffffffff811115614b3c57600080fd5b614b4889828a016149d9565b9150509295509295509295565b600060208284031215614b6757600080fd5b6000614b7584828501614a03565b91505092915050565b600080600080600060a08688031215614b9657600080fd5b6000614ba488828901614a03565b955050602086013567ffffffffffffffff811115614bc157600080fd5b614bcd888289016149d9565b945050604086013567ffffffffffffffff811115614bea57600080fd5b614bf6888289016149d9565b9350506060614c0788828901614a03565b9250506080614c1888828901614a03565b9150509295509295909350565b6000614c318383614e54565b60208301905092915050565b6000614c498383614e72565b905092915050565b6000614c5d8383614ffc565b905092915050565b6000614c7183836150dd565b905092915050565b614c8281615712565b82525050565b614c9181615712565b82525050565b6000614ca28261555d565b614cac81856155c8565b9350614cb78361551d565b8060005b83811015614ce8578151614ccf8882614c25565b9750614cda83615594565b925050600181019050614cbb565b5085935050505092915050565b6000614d0082615568565b614d0a81856155d9565b935083602082028501614d1c8561552d565b8060005b85811015614d585784840389528151614d398582614c3d565b9450614d44836155a1565b925060208a01995050600181019050614d20565b50829750879550505050505092915050565b6000614d7582615573565b614d7f81856155ea565b935083602082028501614d918561553d565b8060005b85811015614dcd5784840389528151614dae8582614c51565b9450614db9836155ae565b925060208a01995050600181019050614d95565b50829750879550505050505092915050565b6000614dea8261557e565b614df481856155fb565b935083602082028501614e068561554d565b8060005b85811015614e425784840389528151614e238582614c65565b9450614e2e836155bb565b925060208a01995050600181019050614e0a565b50829750879550505050505092915050565b614e5d81615724565b82525050565b614e6c81615724565b82525050565b6000614e7d82615589565b614e87818561560c565b9350614e97818560208601615769565b614ea0816158d5565b840191505092915050565b6000614eb682615589565b614ec0818561561d565b9350614ed0818560208601615769565b614ed9816158d5565b840191505092915050565b6000614ef1602e8361561d565b9150614efc826158e6565b604082019050919050565b6000614f1460278361561d565b9150614f1f82615935565b604082019050919050565b6000614f3760238361561d565b9150614f4282615984565b604082019050919050565b6000614f5a60178361561d565b9150614f65826159d3565b602082019050919050565b6000614f7d60308361561d565b9150614f88826159fc565b604082019050919050565b6000614fa0603a8361561d565b9150614fab82615a4b565b604082019050919050565b6000614fc360188361561d565b9150614fce82615a9a565b602082019050919050565b6000614fe660388361561d565b9150614ff182615ac3565b604082019050919050565b60006101408301600083015161501560008601826151da565b50602083015161502860208601826151da565b50604083015184820360408601526150408282614e72565b9150506060830151848203606086015261505a8282614e72565b915050608083015161506f60808601826151da565b5060a083015161508260a08601826151da565b5060c083015161509560c08601826151da565b5060e08301516150a860e0860182614e54565b506101008301516150bd610100860182614e54565b506101208301516150d2610120860182614c79565b508091505092915050565b6000610140830160008301516150f660008601826151da565b506020830151848203602086015261510e8282614e72565b915050604083015184820360408601526151288282614e72565b915050606083015184820360608601526151428282614e72565b9150506080830151848203608086015261515c8282614cf5565b91505060a083015161517160a0860182614e54565b5060c083015161518460c08601826151da565b5060e083015184820360e086015261519c8282614e72565b9150506101008301516151b3610100860182614c79565b506101208301518482036101208601526151cd8282614c97565b9150508091505092915050565b6151e381615750565b82525050565b6151f281615750565b82525050565b600060208201905081810360008301526152128184614d6a565b905092915050565b600060208201905081810360008301526152348184614ddf565b905092915050565b6000602082019050818103600083015261525581614ee4565b9050919050565b6000602082019050818103600083015261527581614f07565b9050919050565b6000602082019050818103600083015261529581614f2a565b9050919050565b600060208201905081810360008301526152b581614f4d565b9050919050565b600060208201905081810360008301526152d581614f70565b9050919050565b600060208201905081810360008301526152f581614f93565b9050919050565b6000602082019050818103600083015261531581614fb6565b9050919050565b6000602082019050818103600083015261533581614fd9565b9050919050565b600060208201905061535160008301846151e9565b92915050565b60006101008201905061536d600083018b6151e9565b818103602083015261537f818a614eab565b905081810360408301526153938189614eab565b905081810360608301526153a78188614eab565b90506153b66080830187614e63565b6153c360a08301866151e9565b81810360c08301526153d58185614eab565b90506153e460e0830184614c88565b9998505050505050505050565b600061014082019050615407600083018d6151e9565b615414602083018c6151e9565b8181036040830152615426818b614eab565b9050818103606083015261543a818a614eab565b905061544960808301896151e9565b61545660a08301886151e9565b61546360c08301876151e9565b61547060e0830186614e63565b61547e610100830185614e63565b61548c610120830184614c88565b9b9a5050505050505050505050565b60006154a56154b6565b90506154b182826157ce565b919050565b6000604051905090565b600067ffffffffffffffff8211156154db576154da6158a6565b5b602082029050602081019050919050565b600067ffffffffffffffff821115615507576155066158a6565b5b615510826158d5565b9050602081019050919050565b6000819050602082019050919050565b6000819050602082019050919050565b6000819050602082019050919050565b6000819050602082019050919050565b600081519050919050565b600081519050919050565b600081519050919050565b600081519050919050565b600081519050919050565b6000602082019050919050565b6000602082019050919050565b6000602082019050919050565b6000602082019050919050565b600082825260208201905092915050565b600082825260208201905092915050565b600082825260208201905092915050565b600082825260208201905092915050565b600082825260208201905092915050565b600082825260208201905092915050565b600061563982615750565b915061564483615750565b9250827fffffffffffffffffffffffffffffffffffffffffffffffffffffffffffffffff0382111561567957615678615848565b5b828201905092915050565b600061568f82615750565b915061569a83615750565b9250817fffffffffffffffffffffffffffffffffffffffffffffffffffffffffffffffff04831182151516156156d3576156d2615848565b5b828202905092915050565b60006156e982615750565b91506156f483615750565b92508282101561570757615706615848565b5b828203905092915050565b600061571d82615730565b9050919050565b60008115159050919050565b600073ffffffffffffffffffffffffffffffffffffffff82169050919050565b6000819050919050565b82818337600083830152505050565b60005b8381101561578757808201518184015260208101905061576c565b83811115615796576000848401525b50505050565b600060028204905060018216806157b457607f821691505b602082108114156157c8576157c7615877565b5b50919050565b6157d7826158d5565b810181811067ffffffffffffffff821117156157f6576157f56158a6565b5b80604052505050565b600061580a82615750565b91507fffffffffffffffffffffffffffffffffffffffffffffffffffffffffffffffff82141561583d5761583c615848565b5b600182019050919050565b7f4e487b7100000000000000000000000000000000000000000000000000000000600052601160045260246000fd5b7f4e487b7100000000000000000000000000000000000000000000000000000000600052602260045260246000fd5b7f4e487b7100000000000000000000000000000000000000000000000000000000600052604160045260246000fd5b6000601f19601f8301169050919050565b7f6e6f742074686520706572736f6e2077686f206f726967696e616c6c79206d6160008201527f64652074686520626f6f6b696e67000000000000000000000000000000000000602082015250565b7f626f6f6b696e672077697468207468697320494420697320616c72656164792060008201527f64656c6574656400000000000000000000000000000000000000000000000000602082015250565b7f70726f706572747920776974682074686973204944206973206e6f742061637460008201527f6976650000000000000000000000000000000000000000000000000000000000602082015250565b7f53656e7420696e73756666696369656e742066756e6473000000000000000000600082015250565b7f70726f7065727479206973206e6f7420617661696c61626c6520666f7220746860008201527f652073656c656374656420646174657300000000000000000000000000000000602082015250565b7f626f6f6b696e672068617320616c7265616479206265656e20636f6e6669726d60008201527f65642e2044656c657465206973206e6f7420706f737369626c65000000000000602082015250565b7f6e6f742076616c69642070726f7065727479206f776e65720000000000000000600082015250565b7f4e6f7420612070726f70657479206f776e657220616e642063616e6e6f74206d60008201527f61726b2070726f706572747920617320696e6163746976650000000000000000602082015250565b615b1b81615712565b8114615b2657600080fd5b50565b615b3281615750565b8114615b3d57600080fd5b5056fea26469706673582212208acbc378b1c51805649ca866add514e1b7884f93138ccb46e1bbf593c62a47ff64736f6c63430008040033",
  "linkReferences": {},
  "deployedLinkReferences": {}
}